:020000040800F2
:1000000000800020511E0008751D0008771D0008A3
:10001000791D00087B1D00087D1D00080000000000
:100020000000000000000000000000007F1D00082C
:10003000811D000800000000831D0008851D0008C8
:10004000A11E0008A11E0008A11E0008A11E000894
:10005000A11E0008A11E0008A11E0008A11E000884
:10006000A11E0008A11E0008A11E00088D1D000889
:10007000A11E0008A11E0008A11E0008A11E000864
:10008000A11E0008A11E00089D1D0008A11E000859
:10009000A11E0008A11E0008A11E0008A11E000844
:1000A000A11E0008A11E0008A11E0008A11E000834
:1000B000A11E0008A11E0008A11E0008A11E000824
:1000C000A11E0008A11E0008A11E0008A11E000814
:1000D000A11E0008A11E0008A11E0008A11E000804
:1000E000A11E0008A11E0008A11E0008A11E0008F4
:1000F000A11E0008A11E0008000000000000000072
:100100000000000000000000A11E0008A11E000861
:100110000000000000000000A11E0008A11E000851
:10012000A11E0008A11E0008A11E0008A11E0008B3
:10013000A11E0008A11E0008A11E0008A11E0008A3
:10014000A11E0008000000000000000000000000E8
:10015000000000000000000000000000000000009F
:100160000000000000000000A11E0008A11E000801
:10017000A11E000800000000A11E000800000000F1
:0801800000000000A11E0008B0
:1001900010B5054C237833B9044B13B10448AFF3C1
:1001A00000800123237010BD7000002000000000BB
:1001B0001427000808B5034B1BB103490348AFF3EC
:1001C000008008BD00000000740000201427000813
:1001D000034613F8012B002AFBD1181A0138704787
:1001E00001F0FF01102A2BDB10F0070F08D010F8E8
:1001F000013B013A8B422DD010F0070F42B3F6D1EC
:10020000F0B441EA012141EA014122F007047FF004
:1002100000070023F0E80256083C85EA010586EA5B
:10022000010685FA47F5A3FA87F586FA47F6A5FA97
:1002300087F68EB9EED1F0BC01F0FF0102F00702A3
:1002400032B110F8013B013A83EA010313B1F8D14E
:100250000020704701387047002D06BF354603382F
:10026000073815F0010F07D1013015F4807F02BF68
:10027000013015F4C03F0130F0BC0138704700BFB9
:1002800010B504460E4B18784FF47A73B3FBF0F3B5
:100290000C4A1068B0FBF3F000F094FB68B90F2C27
:1002A00001D901200AE0002221464FF0FF3000F082
:1002B00047FB034B5C60002000E0012010BD00BF45
:1002C000000000200800002008B5074A136843F02A
:1002D00010031360032000F021FB0020FFF7D0FF84
:1002E00001F030FD002008BD00200240034A1168E3
:1002F000034B1B780B441360704700BFBC00002009
:1003000000000020014B1868704700BFBC000020AF
:1003100038B50446FFF7F6FF0546B4F1FF3F02D0BB
:10032000044B1B781C44FFF7EDFF401BA042FAD39F
:1003300038BD00BF0000002070477047704738B5D7
:1003400003689A6812F0010F01D1002038BD0446FD
:100350009A6822F001029A60FFF7D4FF05462368ED
:100360009B6813F0010F0ED0FFF7CCFF401B022853
:10037000F5D9A36A43F01003A362E36A43F00103D3
:10038000E3620120E2E70020E0E7000030B583B03F
:100390000023019303689A6812F0010F2ED19A6826
:1003A00042F001029A60174B1B68174AA2FB032315
:1003B0009B0C019302E0019B013B0193019B002BED
:1003C000F9D10446FFF79EFF054623689B6813F0AA
:1003D000010F11D1FFF796FF401B0228F5D9A36A40
:1003E00043F01003A362E36A43F00103E3620023D6
:1003F00084F82430012002E0002000E0002003B057
:1004000030BD00BF0800002083DE1B4308B5406AF2
:10041000836A43F040038362C36A43F00403C36208
:10042000FFF78CFF08BD08B5406AFFF785FF08BDE0
:1004300008B5436A9A6A12F0500F03D01B6A1B6B0F
:10044000984708BD9A6A42F400729A621A689268E4
:1004500002F46022B2F5602F03D0184601F0C2FB0F
:10046000EFE71A7B002AF8D19A6A22F480729A6226
:100470009A6A12F4805FF0D19A6A42F001029A629D
:10048000EBE7000000287FD038B50446836A002BD4
:1004900033D02046FFF753FFA36A13F010036DD14A
:1004A00000286BD1A26A22F4885222F0020242F0A4
:1004B0000202A2626268E1690A43257B42EA4502C0
:1004C000A168B1F5807F21D001291CD0217D0129AF
:1004D0001FD02568696821F469410B436B6021686E
:1004E0008D682A4B2B4013438B60A368B3F5807F44
:1004F00020D0012B1ED000211FE0C36280F82430E1
:1005000001F010FAC5E74FF48073DFE74FF4807312
:10051000DCE735B9A169013943EA413343F40063AB
:10052000D7E7A16A41F02001A162E16A41F001012F
:10053000E162CEE72369013B19052568EB6A23F4E4
:1005400070030B43EB6223689968114B0B409A428E
:100550000BD0A36A23F0120343F01003A362E36AF3
:1005600043F00103E36201200DE00023E362A36A8C
:1005700023F0030343F00103A36204E0A36A43F002
:100580001003A362012038BD01207047FDF7E1FF91
:10059000FE0E1FFF90F82430012B3ED010B504460C
:1005A000012380F82430FFF7F1FE024658BBA36A0E
:1005B00023F4407323F0010343F48073A3622368A0
:1005C000596811F4806F05D0A16A21F4405141F4BB
:1005D0008051A162A16A11F4805F16D0E16A21F016
:1005E0000601E162002184F824106FF00201196015
:1005F0002368996801F46021B1F5602F08D09968EB
:1006000041F480119960104610BD0021E162E9E7D4
:10061000996841F4A0019960F5E7022210467047FD
:10062000F8B590F82440012C55D016460D460446E6
:10063000012380F82430FFF7A9FE074600284BD19C
:10064000A36A23F4407323F0010343F48073A3628D
:1006500023685B6813F4806F05D0A36A23F44053CA
:1006600043F48053A362A36A13F4805F2BD0E36A40
:1006700023F00603E362002384F82430236A174A38
:100680009A62236A164ADA62236A164A1A63236850
:100690006FF002021A602268936843F480739360DB
:1006A000216833462A464C31206A00F005FA236857
:1006B0009A6802F46022B2F5602F07D09A6842F47B
:1006C00080129A6008E00023E362D4E79A6842F45B
:1006D000A0029A6000E002273846F8BD3104000805
:1006E000270400080D040008704710B5044603688D
:1006F0005A6812F0200F18D01A6812F0020F14D0A6
:10070000826A12F0100F03D1826A42F40072826290
:100710009A6802F46022B2F5602F38D0204601F0CA
:1007200061FA23686FF012021A6023685A6812F0A7
:10073000800F22D01A6812F0040F1ED0A26A12F0A5
:10074000100F03D1A26A42F40052A2629A6802F426
:10075000E042B2F5E04F31D05A6812F4806F05D113
:100760009A6802F46022B2F5602F24D02046FFF789
:10077000BBFF23686FF00C021A6023685A6812F0FE
:10078000400F03D01B6813F0010F28D110BD227B4E
:10079000002AC3D15A6822F020025A60A36A23F4C7
:1007A0008073A362A36A13F4805FB7D1A36A43F096
:1007B0000103A362B2E7227B002AD7D15A6822F054
:1007C00080025A60A36A23F48053A362A36A13F4DD
:1007D000807FCBD1A36A43F00103A362C6E7A36A7B
:1007E00043F48033A3622046FFF7A7FD23686FF030
:1007F00001021A60CAE7000030B482B000230193FE
:1008000090F82430012B00F08180012380F82430FF
:100810004B68062B2CD805686A6B03EB8303053BFA
:100820001F249C4022EA04020C6804FA03F31343D9
:100830006B630B680A2B3BD90568EA6803EB43033B
:100840001E3B07249C4022EA04028C6804FA03F34E
:100850001343EB600B68A3F11002012A36D9122B67
:100860004ED0002380F82430184602B030BC7047C8
:100870000C2B0ED805682A6B03EB8303233B1F2444
:100880009C4022EA04020C6804FA03F313432B632E
:10089000CFE70568EA6A03EB8303413B1F249C40D2
:1008A00022EA04020C6804FA03F31343EB62C0E784
:1008B00005682A6903EB430307249C4022EA0402EB
:1008C0008C6804FA03F313432B61C3E7026893684F
:1008D00043F4000393600B68102BC2D10C4B1B68D0
:1008E0000C4AA2FB03239B0C03EB83035A000192E7
:1008F00002E0019B013B0193019B002BF9D1B0E782
:10090000054A136843F080731360AAE70220ACE73E
:100910000800002083DE1B4300000140074AD36823
:1009200023F4E0631B041B0C000200F4E060184396
:1009300040F0BF6040F40030D060704700ED00E050
:1009400030B4174BDB68C3F30223C3F10704042C54
:1009500028BF04241D1D062D18D9033B4FF0FF3579
:1009600005FA04F421EA0401994005FA03F322EAA6
:100970000303194300280BDB0901C9B200F16040F1
:1009800000F5614080F8001330BC70470023E5E7B4
:1009900000F00F000901C9B2024B1954F4E700BF7F
:1009A00000ED00E014ED00E0002807DB00F01F027E
:1009B000400901239340024A42F82030704700BFAB
:1009C00000E100E00138B0F1807F0AD2064B5860A8
:1009D000064AF02182F823100020986007221A604E
:1009E00070470120704700BF10E000E000ED00E01C
:1009F00070B4066CC56B0124B4406C60046863601D
:100A00004368102B05D0036899600368DA6070BCF6
:100A1000704703689A600368D960F8E702680C4B76
:100A20009A420AD90B4B13440B4AA2FB03231B091E
:100A30009B000364094BC3637047094B1344064A88
:100A4000A2FB03231B099B000364064BC36370478F
:100A500007040240F8FBFDBFCDCCCCCC0004024023
:100A6000F8FFFDBF0000024020B310B5044602238A
:100A700080F8213001680A6822F47F5222F03002A7
:100A8000436880680343E068034320690343606967
:100A90000343A0690343E069034313430B6020460B
:100AA000FFF7BCFF0020A063012384F8213084F805
:100AB000200010BD0120704738B590F82040012C6F
:100AC00032D0012480F8204090F82140012C04D03D
:100AD000002380F82030022038BD0446022084F82C
:100AE00021000020A0632568286820F0010028600C
:100AF0002046FFF77DFFE36A5BB12268136843F08D
:100B00000E0313602268136843F001031360002092
:100B1000E2E72268136843F00A031360226813684F
:100B200023F004031360EDE70220D5E738B5C36B6B
:100B30001A6804682568016C04238B40134213D0A3
:100B400015F0040F10D0236813F0200F03D1236891
:100B500023F004032360016CC26B04238B405360B9
:100B6000C36A03B1984738BD02238B4013421AD0A1
:100B700015F0020F17D0236813F0200F06D1236859
:100B800023F00A032360012380F82130016CC26B3B
:100B900002238B405360002380F82030836A002BAF
:100BA000E1D09847DFE7082303FA01F11142DAD0D8
:100BB00015F0080FD7D0236823F00E032360026CD2
:100BC000C16B012303FA02F24A60836380F821308B
:100BD000002380F82030036B002BC4D09847C2E775
:100BE000F0B482B0002336E0042400E00024B440D6
:100BF0003C4302355B4E46F825405B4C2568D443A8
:100C000004EA05064F6817F4803F01D042EA050662
:100C1000554D2E606D6804EA05064F6817F4003FD5
:100C200001D042EA0506504D6E60AD6804EA050643
:100C30004F6817F4801F01D042EA05064A4DAE60A6
:100C4000ED682C404E6816F4001F01D042EA0504FE
:100C5000454AD46001330A6832FA03F47ED0012495
:100C60009C402240F6D04D68022D01D0122D10D1AB
:100C7000DE08083650F826C003F00705AF000F2540
:100C8000BD402CEA050C0D69BD4045EA0C0540F855
:100C9000265006685F000325BD40ED4305EA060CBB
:100CA0004E6806F00306BE4046EA0C0606604E6833
:100CB00006F1FF3CBCF1010F03D9112E01D0122E19
:100CC00010D1866805EA060CCE68BE4046EA0C06DE
:100CD0008660466826EA04044E68C6F300169E4005
:100CE00026434660C46825408C68BC402C43C460E1
:100CF0004C6814F0805FADD01C4CA56945F001052F
:100D0000A561A46904F001040194019C9D08AE1C36
:100D1000144C54F8267003F00304A6000F24B440CA
:100D200027EA0407B0F1904F3FF460AF104CA042A7
:100D30000ED004F58064A0420CD004F58064A0427B
:100D40000AD004F58064A0423FF44EAF05244EE77C
:100D500001244CE702244AE7032448E702B0F0BC30
:100D6000704700BF00000140000401400010024035
:100D7000000400480AB98162704781617047000031
:100D8000002800F00D8370B582B00446036813F0AC
:100D9000010F3BD0B54B5B6803F00C03042B1ED056
:100DA000B24B5B6803F00C03082B13D06368B3F5F8
:100DB000803F68D0002B40F0928003F1804303F520
:100DC00004331A6822F480321A601A6822F48022EE
:100DD0001A605DE0A54B5B6813F4803FE6D04FF4EA
:100DE000003393FAA3F3A14B19684FF4003393FA3D
:100DF000A3F3B3FA83F303F01F03012202FA03F310
:100E00000B4203D06368002B00F0CC82236813F000
:100E1000020F00F0C680954B5B6813F00C0F00F0DA
:100E20009C80924B5B6803F00C03082B00F08F80D2
:100E30002369002B00F0F380012292FAA2F3B3FAA7
:100E400083F303F1845303F584139B001A60FFF7C7
:100E500059FA0546022393FAA3F3844B1968022337
:100E600093FAA3F3B3FA83F303F01F03012202FA08
:100E700003F30B4240F0C480FFF744FA401B022802
:100E8000E8D9032095E2794A136843F4803313606C
:100E9000764AD36A23F00F03A1680B43D3626368D9
:100EA000002B36D0FFF72EFA05464FF4003393FAA5
:100EB000A3F36E4B19684FF4003393FAA3F3B3FA1C
:100EC00083F303F01F03012202FA03F30B429DD1C7
:100ED000FFF718FA401B6428E7D9032069E2B3F54D
:100EE000A02F09D0614B1A6822F480321A601A6868
:100EF00022F480221A60CBE703F18043A3F53C3350
:100F00001A6842F480221A601A6842F480321A6029
:100F1000BEE7FFF7F7F905464FF4003393FAA3F362
:100F2000524B19684FF4003393FAA3F3B3FA83F3E7
:100F300003F01F03012202FA03F30B423FF466AFF2
:100F4000FFF7E0F9401B6428E6D9032031E2474B64
:100F50005B6813F4803F7FF46BAF022393FAA3F333
:100F6000424B1968022393FAA3F3B3FA83F303F015
:100F70001F03012202FA03F30B4204D023699342B8
:100F800001D0012015E23948036823F0F8036169B4
:100F9000F82292FAA2F2B2FA82F201FA02F21343B2
:100FA0000360236813F0080F00F08C80A369002B06
:100FB00060D0012191FAA1F2B2FA82F22C4B1344D3
:100FC0009B001960FFF79EF90546022393FAA3F2EE
:100FD00093FAA3F293FAA3F2244A516A93FAA3F381
:100FE000B3FA83F303F01F03012202FA03F30B4267
:100FF00068D1FFF787F9401B0228E6D90320D8E122
:101000001A48036823F0F8036169F82292FAA2F201
:10101000B2FA82F201FA02F213430360C1E701233C
:1010200093FAA3F3B3FA83F303F1845303F5841320
:101030009B0000221A60FFF765F90546022393FA28
:10104000A3F30A4B1968022393FAA3F3B3FA83F3C9
:1010500003F01F03012202FA03F30B42A1D0FFF7B2
:1010600051F9401B0228E9D90320A2E100100240F7
:1010700020819010012292FAA2F2B2FA82F2BC4BC5
:1010800013449B0000221A60FFF73CF90546022337
:1010900093FAA3F293FAA3F293FAA3F2B54A516A30
:1010A00093FAA3F3B3FA83F303F01F03012202FAC6
:1010B00003F30B4206D0FFF725F9401B0228E6D9BF
:1010C000032076E1236813F0040F00F0B380A94BEE
:1010D000DB6913F0805F20D1A64BDA6942F08052C1
:1010E000DA61DB6903F080530193019B0125A24B78
:1010F0001B6813F4807F12D0E368012B23D073BBED
:1011000003F1804303F504331A6A22F001021A62E4
:101110001A6A22F004021A621AE00025E7E7964AEA
:10112000136843F480731360FFF7ECF80646924BA4
:101130001B6813F4807FDFD1FFF7E4F8801B64287D
:10114000F5D9032035E18B4A136A43F0010313629A
:10115000E368002B41D0FFF7D5F806462BE0052BBE
:1011600009D0844B1A6A22F001021A621A6A22F02C
:1011700004021A62ECE77F4B1A6A42F004021A6218
:101180001A6A42F001021A62E2E77A4B196A0223F4
:1011900093FAA3F3B3FA83F303F01F03012202FAD5
:1011A00003F3194245D1FFF7ADF8801B41F28833B4
:1011B000984200F2F980022393FAA3F293FAA3F380
:1011C000B3FA83F35B0943F00203022BDDD0022361
:1011D00093FAA3F3674B596AD9E7FFF793F80646EA
:1011E00015E0644B196A022393FAA3F3B3FA83F36D
:1011F00003F01F03012202FA03F3194219D0FFF78B
:1012000081F8801B41F28833984200F2CF8002239C
:1012100093FAA3F293FAA3F3B3FA83F35B0943F0CF
:101220000203022BDDD0022393FAA3F3514B596A38
:10123000D9E7B5BBE369002B00F0BA804D4A52688C
:1012400002F00C02082A00F09980022B2FD04FF0F8
:10125000807393FAA3F3B3FA83F303F1845303F592
:1012600084139B0000221A60FFF74CF804464FF0ED
:10127000007393FAA3F33F4B19684FF0007393FA8E
:10128000A3F3B3FA83F303F01F03012202FA03F37B
:1012900019426BD0FFF736F8001B0228E7D903206C
:1012A00087E0344AD36923F08053D361C2E74FF01B
:1012B000807393FAA3F3B3FA83F303F1845303F532
:1012C00084139B0000221A60FFF71CF805464FF0BC
:1012D000007393FAA3F3274B19684FF0007393FA46
:1012E000A3F3B3FA83F303F01F03012202FA03F31B
:1012F000194206D0FFF706F8401B0228E7D9032061
:1013000057E01C494B6823F47413626A206A024355
:1013100013434B604FF0807393FAA3F3B3FA83F354
:1013200003F1845303F584139B0001221A60FEF736
:10133000E9FF04464FF0007393FAA3F30D4B1968CD
:101340004FF0007393FAA3F3B3FA83F303F01F0390
:10135000012202FA03F3194206D1FEF7D3FF001B64
:101360000228E7D9032024E0002022E0002020E02A
:10137000208190100010024000700040012B1AD014
:101380000F4B5B6803F48031226A914201D0012047
:101390000FE003F47013626A93420ED0012008E05C
:1013A00001207047012004E0032002E0032000E058
:1013B000002002B070BD0120FBE70020F9E700BF6C
:1013C00000100240194B5B6803F00C02042A03D0A2
:1013D000082A03D0164870471648704710B403F423
:1013E00070114FF4701292FAA2F2B2FA82F221FA5C
:1013F00002F2114CA05C0D4AD26A02F00F020F21DA
:1014000091FAA1F1B1FA81F1CA402244127C13F49D
:10141000803F07D0074BB3FBF2F300FB03F05DF80E
:10142000044B7047054B03FB00F0F8E70010024047
:1014300000127A000048E8012C27000800093D004E
:10144000002800F0C18070B50446614B1B6803F0B2
:1014500007038B420CD25E4A136823F007030B4349
:101460001360136803F007038B4201D0012070BDA5
:10147000236813F0020F06D0564A536823F0F00396
:10148000A068034353600D46236813F0010F5AD040
:101490006368012B2DD0022B40D0022292FAA2F2D7
:1014A0004C4A1068022292FAA2F2B2FA82F202F0D8
:1014B0001F02012101FA02F2104200F08780454923
:1014C0004A6822F0030213434B60FEF71BFF0646F7
:1014D000404B5B6803F00C036268B3EB820F32D0C1
:1014E000FEF710FF801B41F288339842F0D90320A9
:1014F000BDE74FF4003292FAA2F2364A10684FF478
:10150000003292FAA2F2B2FA82F202F01F02012134
:1015100001FA02F20242D2D10120A8E74FF0007294
:1015200092FAA2F22B4A10684FF0007292FAA2F2DD
:10153000B2FA82F202F01F02012101FA02F2104215
:10154000BDD1012093E7224B1B6803F00703AB4298
:101550000CD91F4A136823F007032B431360136849
:1015600003F00703AB4201D0012080E7236813F0AA
:10157000040F06D0174A536823F4E063E1680B4375
:101580005360236813F0080F07D0124A536823F4FE
:101590006053216943EAC1035360FFF713FF0D4B0A
:1015A0005B6803F0F003F02292FAA2F2B2FA82F240
:1015B000D340094AD35CD840084B1860084B1868E0
:1015C000FEF75EFE002052E70120704701204EE743
:1015D00000200240001002404C27000808000020B4
:1015E00004000020014B1868704700BF080000206D
:1015F00008B5FFF7F7FF074B5B6803F4E0634FF4B0
:10160000E06292FAA2F2B2FA82F2D340024AD35CCA
:10161000D84008BD001002405C270008F0B583B038
:101620000446036813F4803F48D07D4BDB6913F018
:10163000805F40F0A9807A4BDA6942F08052DA612B
:10164000DB6903F080530193019B0125754B1B68F7
:1016500013F4807F00F09A80714B1B6A13F440737F
:1016600022D0626802F440729A421DD06C48016A2E
:1016700021F440764FF4803393FAA3F2B2FA82F267
:10168000694F3A4492004FF0010CC2F800C093FA3F
:10169000A3F3B3FA83F33B449B0000221A60066273
:1016A00011F0010F40F087805D4A136A23F4407304
:1016B00061680B431362002D40F0A980236813F08A
:1016C000010F06D0564A136B23F00303A1680B43A6
:1016D0001363236813F0020F06D0514A136B23F4EF
:1016E0004033E1680B431363236813F0040F06D003
:1016F0004B4A136B23F4402321690B431363236884
:1017000013F0200F06D0464A136B23F010036169D3
:101710000B431363236813F4003F06D0404A536819
:1017200023F48003A16A0B435360236813F0400F36
:1017300006D03B4A136B23F02003A1690B431363CC
:10174000236813F0800F06D0354A536823F44043D2
:10175000E1690B435360236813F4006F06D0304AED
:10176000536823F07843216A0B435360236813F4D2
:10177000806F53D02A4A136B23F04003616A0B43F6
:101780001363002003B0F0BD00255FE7254A13680E
:1017900043F480731360FEF7B5FD0646214B1B68CA
:1017A00013F4807F7FF458AFFEF7ACFD801B6428F4
:1017B000F4D90320E6E7FEF7A5FD064615E0184B31
:1017C000196A022393FAA3F3B3FA83F303F01F0316
:1017D000012202FA03F30B427FF466AFFEF792FD9B
:1017E000801B41F28833984216D8022393FAA3F261
:1017F00093FAA3F3B3FA83F35B0943F00203022BDA
:10180000DDD0022393FAA3F3054B596AD9E7D369D4
:1018100023F08053D36151E70320B3E70020B1E701
:1018200000100240007000400081901000B585B0AB
:1018300000230193029303933848394A02604FF41E
:1018400080728260037303754FF46022C26143604B
:1018500007230361FEF716FE002847D108230193F2
:10186000012302930023039301A92C48FEF7C4FF30
:1018700000283ED10A2301930223029301A927489D
:10188000FEF7BAFF002837D10B23019303230293FD
:1018900001A92248FEF7B0FF002830D10C230193A4
:1018A000042302930DEB03011C48FEF7A5FF48BB80
:1018B0000D2301930523029301A91848FEF79CFF0D
:1018C00018BB0E2301930623029301A91348FEF7C8
:1018D00093FFE8B90F2301930723029301A90F484F
:1018E000FEF78AFFB8B905B05DF804FB00F028FAEE
:1018F000B4E700F025FABDE700F022FAC4E700F0F3
:101900001FFACBE700F01CFAD2E700F019FAD8E78B
:1019100000F016FADEE700F013FAE4E7C00000205A
:101920000024014030B589B000230393049305934C
:101930000693079302682B4B9A4201D009B030BD41
:10194000044603F56C439A6942F400729A619A69FD
:1019500002F400720092009A5A6942F400225A611D
:101960005A6902F400220192019A5A6942F48022D3
:101970005A615B6903F480230293029B3F23039324
:101980000325049503A91848FFF72AF901230393B7
:1019900004950025059503A91448FFF721F914487B
:1019A000144B0360456085608023C3604FF48073EF
:1019B00003614FF48063436185614FF44053C36119
:1019C000FFF752F858B90A4B23625C6200221146B5
:1019D0001220FEF7B5FF1220FEF7E6FFAEE700F09B
:1019E000AFF9F0E700240140000800480004004877
:1019F000F00000200800024000B583B00A4B5A698D
:101A000042F001025A615B6903F001030193019BFB
:101A1000002211460B20FEF793FF0B20FEF7C4FFB8
:101A200003B05DF804FB00BF0010024030B58BB07E
:101A30000024059406940794089409941C4B5A6951
:101A400042F400225A615A6902F400220192019A7A
:101A50005A6942F480025A615A6902F48002029281
:101A6000029A5A6942F480225A615A6902F4802229
:101A70000392039A5A6942F400325A615B6903F493
:101A800000330493049B0B4D22464FF440412846FB
:101A9000FFF770F94FF44043059301230693079431
:101AA000089405A92846FFF79BF80BB030BD00BF8E
:101AB0000010024000040048012802D002280DD086
:101AC000704729B10C4A936943F40043936170470E
:101AD000094A936A43F400439362704729B9064A5E
:101AE000936A43F480439362EAE7034A936943F4B9
:101AF00080439361704700BF0004004808B500218F
:101B00000220FFF7D9FF00210120FFF7D5FF0A20AF
:101B1000FEF7FEFB01210220FFF7CEFF0121084660
:101B2000FFF7CAFF0A20FEF7F3FB08BD0185C36972
:101B300013F0400FFBD07047F8B507460E46084635
:101B4000FEF746FB0546002404E0315D3846FFF70A
:101B5000EDFF0134AC42F8DBF8BD000010B51D4AC2
:101B6000D36943F40023D3611B4B196821F440115E
:101B70001960196821F440011960196841F42001C5
:101B80001960596A21F470615962596A21F47041EF
:101B90005962596A41F4E0615962596A41F4E0417D
:101BA0005962D36943F48023D3610C4C236823F03A
:101BB000010323602C232360FFF71AFD00F5614029
:101BC000074BA3FB0030000CE060236843F00103E7
:101BD000236010BD0010024000080048004800408B
:101BE000C5B3A291002306E0044A32F8131002EBB9
:101BF000430211820133062BF6DD70478C00002072
:101C000030B59BB000241394159416940B940C9447
:101C10000D940E940F942C222146684600F06CF926
:101C2000012210924FF480331193032112911492E8
:101C30000225179518934FF4E013199310A8FFF796
:101C40009FF80F230B930C950D944FF480630E9324
:101C50000F9429460BA8FFF7F3FB84230093049409
:101C600007946846FFF7DAFC1BB030BD30B59BB077
:101C7000FEF72AFBFFF7C4FFFFF7D8FE284A536997
:101C800043F480235361274B1A6822F070421A6094
:101C90001A6842F0A0421A6001210220FFF70CFFEF
:101CA00001210846FFF708FFFFF728FFFFF7A4FE12
:101CB000FFF7BCFDFFF752FFFFF720FFFFF71EFF06
:101CC0001948FEF767FC19491948FFF735FF1EE070
:101CD000184B33F814302246174901A800F014F9C4
:101CE00001A91348FFF728FF0134062CF0DD01ACF1
:101CF000124D0FCD0FC495E80F0007C4238001A932
:101D00000B48FFF719FF4FF44870FEF701FBFFF790
:101D1000F5FE072207490448FEF782FC0024E4E7A9
:101D20000010024000040048C000002064270008A2
:101D3000004800408C000020742700088427000819
:101D40007047000082B00A4B9A6942F001029A6122
:101D50009A6902F001020092009ADA6942F0805218
:101D6000DA61DB6903F080530193019B02B0704795
:101D7000001002407047FEE7FEE7FEE7FEE770470F
:101D80007047704708B5FEF7B1FA08BD08B50248BC
:101D9000FEF7CCFE08BD00BFF000002008B50248E9
:101DA000FEF7A3FC08BD00BFC000002008B5034635
:101DB0000B4A126842B10A4A106803446A469342C9
:101DC00006D8074A136008BD054A06491160F2E7C4
:101DD00000F068F80C2303604FF0FF30F3E700BF1A
:101DE000AC000020380100201549D1F8883043F4B8
:101DF0007003C1F88830134B1A6842F001021A6070
:101E00005868114A02405A601A6822F0847222F41B
:101E100080321A601A6822F480221A605A6822F40A
:101E2000FE025A60DA6A22F00F02DA62186B074A81
:101E300002401A6300229A604FF000638B60704783
:101E400000ED00E0001002400CC07FF8CCFC00FF69
:101E5000DFF834D0002103E00C4B5B5843500431D1
:101E60000B480C4B42189A42F6D30B4A02E000236F
:101E700042F8043B094B9A42F9D3FFF7B5FF00F053
:101E800017F8FFF7F3FEFEE700800020E0270008C8
:101E900000000020700000207000002038010020A9
:101EA000FEE70000014B1868704700BF0C000020DF
:101EB00070B50D4E0D4CA41BA4100025A54209D1F0
:101EC0000B4E0C4C00F026FCA41BA4100025A542D0
:101ED00005D170BD56F8253098470135EEE756F824
:101EE000253098470135F2E7D8270008D8270008A1
:101EF000D8270008DC27000802440346934200D19B
:101F0000704703F8011BF9E70EB400B59CB01DAB98
:101F1000029006906FF00041094807910491094929
:101F200053F8042B05910068019302A900F066F8AC
:101F3000029B00221A701CB05DF804EB03B07047DE
:101F40000C0000200802FFFF2DE9F0478E689E423A
:101F500082460C469046994637D88A8912F4906F8B
:101F600031D0256809696F1A6569022305EB4505BB
:101F700095FBF3F509F101033B449D4238BF1D4633
:101F8000530530D5294600F02BFB064650B90C23EB
:101F9000CAF80030A38943F04003A3814FF0FF301B
:101FA000BDE8F0873A46216900F0A8FAA38923F436
:101FB000906343F08003A381266165613E44ED1B7D
:101FC0002660A5604E464E4500D94E4632464146F3
:101FD000206800F09EFAA3689B1BA36023681E4440
:101FE00026600020DCE72A4600F054FB0646002865
:101FF000E2D12169504600F0A5FAC8E72DE9F04F7B
:102000001D468B891F069DB080460C4616460FD58F
:102010000B696BB9402100F0E3FA2060206128B918
:102020000C23C8F800304FF0FF30C8E04023636154
:102030000023099320238DF8293030238DF82A308E
:1020400003954FF0010B37463D4615F8013B0BB1A8
:10205000252B3ED1B7EB060A0BD05346324621461C
:102060004046FFF771FF013000F0A480099B534404
:1020700009933B78002B00F09D8000234FF0FF3246
:10208000CDE90523049307938DF853301A932F4617
:10209000052217F8011B5048FEF7A2F8049BD0B99F
:1020A000D90644BF20228DF853201A0744BF2B22A3
:1020B0008DF853202A782A2A15D0079A2F46002017
:1020C0000A25394611F8013B303B092B4DD9B8B1EF
:1020D0000FE02F46B8E7404A801A0BFA00F0184389
:1020E00004903D46D3E7039A111D12680391002A1C
:1020F00001DB079204E0524243F00203079204938B
:102100003B782E2B0CD17B782A2B33D1039B1A1DC5
:102110001B680392002BB8BF4FF0FF3302370593C3
:102120002E4D397803222846FEF75AF838B140235D
:10213000401B03FA00F0049B0343013704933978F2
:1021400027488DF8281006227E1CFEF749F8002843
:1021500038D0244B13BB039B073323F0070308330A
:102160000393099B4B4409936DE705FB0232012061
:102170000F46A6E700230137059319460A2538467E
:1021800010F8012B303A092A03D9002BC8D0059149
:10219000C6E705FB012101230746F0E703AB0093E7
:1021A0002246114B04A94046AFF30080B0F1FF3F37
:1021B0008146D6D1A3895B063FF535AF09981DB09E
:1021C000BDE8F08F03AB00932246074B04A94046BD
:1021D00000F082F8EAE700BFA4270008AA27000859
:1021E000AE27000800000000491F00082DE9F04755
:1021F00091461F468A680B69DDF820809342B8BF7C
:102200001346C9F8003091F8432006460C4612B137
:102210000133C9F800302368990642BFD9F800306D
:102220000233C9F80030256815F0060507D104F11E
:10223000190AE368D9F800209B1AAB4228DC94F80D
:1022400043302268003318BF012392062DD404F1D5
:10225000430239463046C047013020D02368E56844
:10226000D9F8002003F00603042B08BFAD1AA368B9
:1022700022690CBF25EAE57500259342C4BF9B1A6D
:10228000ED184FF000091A344D451AD1002008E02E
:102290000123524639463046C047013003D14FF042
:1022A000FF30BDE8F0870135C3E7E1185A1C302044
:1022B00081F84300224494F8451082F84310023319
:1022C000C5E70123224639463046C0470130E6D0F3
:1022D00009F10109D8E700002DE9F04301F1430CB1
:1022E0000C46097E85B06E291746064698460C9A1C
:1022F00000F0B38022D8632936D00AD8002900F034
:10230000B980582900F0838004F1420584F8421016
:1023100032E0642901D06929F6D1206813680506E6
:1023200003F104012AD51B681160002B03DA2D226A
:102330005B4284F843206F480A2239E0732900F099
:102340009D8008D86F2920D07029DDD1236843F003
:102350002003236003E0752917D07829D4D178238E
:1023600084F84530644855E01368191D1B681160F6
:1023700004F1420584F8423001238CE01B681160AF
:1023800010F0400F18BF1BB2CFE713682568181D67
:102390001060280601D51B6802E06806FBD51B8883
:1023A00054486F2914BF0A220822002184F84310E0
:1023B0006568A560002DC0F29580216821F00401B8
:1023C0002160002B3DD1002D40F08E806546082A0B
:1023D0000BD12368DB0708D5236962689A42DEBF08
:1023E000302305F8013C05F1FF35ACEB0503236113
:1023F000CDF800803B4603AA21463046FFF7F6FEA3
:1024000001304DD14FF0FF3005B0BDE8F0833948C1
:1024100084F84510136821681D1D1B6815600A06A5
:102420000BD5CA0744BF41F0200121601BB92268C7
:1024300022F0200222601022B7E74D0648BF9BB26F
:10244000EFE76546B3FBF2F102FB1133C35C05F81D
:10245000013D0B460029F5D1B9E71368256861698C
:10246000181D106028061B6801D5196002E06A0675
:10247000FBD51980002323616546B9E71368191D50
:1024800011601D68626800212846FDF7A9FE08B1A9
:10249000401B606063682361002384F84330A7E732
:1024A00023692A4639463046C0470130AAD02368FE
:1024B0009B0713D4E068039B9842B8BF1846A3E774
:1024C00001234A4639463046C04701309AD001358B
:1024D000E368039A9B1AAB42F2DCEBE7002504F1B8
:1024E0001909F5E7002BACD1037884F8423004F1E8
:1024F00042056CE7B5270008C627000810B5431E43
:102500000A44914200D110BD11F8014B03F8014F6C
:10251000F7E7884210B501EB020307D8421E994243
:102520000AD011F8014B02F8014FF8E78342F5D9C0
:102530008118D21AD34200D110BD13F8014D01F811
:10254000014DF7E738B50546002945D051F8043C60
:102550000C1F002BB8BFE41800F0D2F81F4A136814
:10256000104633B9636014602846BDE8384000F077
:10257000C8B8A3420CD921686218934204BF1A68F4
:102580005B68636004BF521822600460ECE7134686
:102590005A680AB1A242FAD919685818A0420BD158
:1025A00020680144581882421960DDD110685268D1
:1025B0005A6001441960D7E702D90C232B60D3E796
:1025C000206821188A4204BF11685268626004BF03
:1025D000091821605C60C7E738BD00BFB400002067
:1025E00070B5CD1C25F0030508350C2D38BF0C2522
:1025F000002D064601DBA94203D90C2333600020DD
:1026000070BD00F07DF8214A1468214691B9204C34
:1026100023681BB9304600F063F820602946304635
:1026200000F05EF8431C24D10C233360304600F0E8
:1026300068F8E4E70B685B1B18D40B2B0FD90B6011
:10264000CD50CC18304600F05CF804F10B00231D8F
:1026500020F00700C31AD3D05A42E250D0E78C4290
:102660004B6816BF636013600C46EBE70C46496885
:10267000CCE7C41C24F00304A04205D0211A304644
:1026800000F02EF80130CFD02560DBE7B400002049
:10269000B8000020F8B5074614460E4621B9114689
:1026A000BDE8F840FFF79CBF22B9FFF74BFF254676
:1026B0002846F8BD00F026F8A0420FD22146384641
:1026C000FFF78EFF05460028F2D031462246FFF77D
:1026D00015FF31463846FFF735FFE9E73546E7E7AE
:1026E00038B5064C0023054608462360FFF75EFB1D
:1026F000431C02D1236803B12B6038BD3401002094
:102700007047704751F8043C181F002BBCBF0B5892
:10271000C0187047F8B500BFF8BC08BC9E467047AB
:0C272000F8B500BFF8BC08BC9E4670472E
:10272C0002030405060708090A0B0C0D0E0F101006
:10273C000102030405060708090A0B0C0D0E0F1005
:10274C000000000000000000010203040607080955
:10275C00000000000102030473797374656D206935
:10276C006E69740A00000000616463202025643DDA
:10277C00202564200A0000002D2D2D2D2D2D2D2D12
:10278C002D2D2D2D2D2D2D2D2D2D2D2D2D2D2D2D6D
:10279C002D2D2D2D0A000000232D302B2000686CD0
:1027AC004C00656667454647003031323334353668
:1027BC0037383941424344454600303132333435A1
:0C27CC00363738396162636465660000CE
:0427D800B50100083F
:0427DC00910100085F
:1027E000010000001000000000127A00100000201C
:1027F00000000000000000000000000000000000D9
:1028000000000000000000000000000000000000C8
:1028100000000000000000000000000000000000B8
:1028200000000000000000000000000000000000A8
:102830000000000000000000000000000000000098
:102840000000000000000000000000000000000088
:0400000508001E5180
:00000001FF
